:020000040000fa
:08000000002b040000000000c9
:020000040000fa
:1000080002280000062800000a2800000e28000028
:1000180012280000162800001a2800001e280000d8
:1000280022280000262800002a2800002e28000088
:1000380032280000362800003a2800003e28000038
:1000480042280000462800004a2800004e280000e8
:1000580052280000562800005a2800005e28000098
:1000680062280000662800006a2800006e28000048
:1000780072280000762800007a2800007e280000f8
:1000880082280000862800008a2800008e280000a8
:1000980092280000962800009a2800009e28000058
:1000a800a2280000a6280000aa280000ae28000008
:1000b800b2280000b6280000ba280000be280000b8
:1000c800c2280000c6280000ca280000ce28000068
:1000d800d2280000d6280000da280000de28000018
:1000e800e2280000e6280000ea280000ee280000c8
:1000f800f2280000f6280000fa280000fe28000078
:1001080002290000062900000a2900000e29000023
:1001180012290000162900001a2900001e290000d3
:1001280022290000262900002a2900002e29000083
:1001380032290000362900003a2900003e29000033
:1001480042290000462900004a2900004e290000e3
:1001580052290000562900005a2900005e29000093
:1001680062290000662900006a2900006e29000043
:1001780072290000762900007a2900007e290000f3
:1001880082290000862900008a2900008e290000a3
:1001980092290000962900009a2900009e29000053
:1001a800a2290000a6290000aa290000ae29000003
:1001b800b2290000b6290000ba290000be290000b3
:1001c800c2290000c6290000ca290000ce29000063
:1001d800d2290000d6290000da290000de29000013
:1001e800e2290000e6290000ea290000ee290000c3
:1001f800f2290000f6290000fa290000fe29000073
:1002080002300000063000000a3000000e30000006
:1002180012300000163000001a3000001e300000b6
:1002280022300000263000002a3000000e030000b3
:1002380032300000363000003a3000003e30000016
:1002480042300000463000004a3000004e300000c6
:1002580052300000563000005a3000005e30000076
:1002680062300000663000006a3000006e30000026
:0c02780072300000763000007a30000088
:020000040000fa
:10500000020000000a2c0400000000000a2c04002a
:10501000000000000a2c0400000000000a2c04001c
:10502000000000000a2c0400000000000a2c04000c
:10503000000000000a2c0400000000000a2c0400fc
:10504000000000000a2c0400000000000a2c0400ec
:10505000000000000a2c0400000000000a2c0400dc
:10506000000000000a2c0400000000000a2c0400cc
:10507000000000000a2c0400000000000a2c0400bc
:10508000000000000a2c0400000000000a2c0400ac
:10509000000000000a2c0400000000000a2c04009c
:1050a000000000000a2c0400000000000a2c04008c
:1050b000000000000a2c0400000000000a2c04007c
:1050c000000000000a2c0400000000000a2c04006c
:1050d000000000000a2c0400000000000a2c04005c
:1050e000000000000a2c0400000000000a2c04004c
:1050f000000000000a2c0400000000000a2c04003c
:10510000000000000a2c0400000000000a2c04002b
:10511000000000000a2c0400000000000a2c04001b
:10512000000000000a2c0400000000000a2c04000b
:10513000000000000a2c0400000000000a2c0400fb
:10514000000000000a2c0400000000000a2c0400eb
:10515000000000000a2c0400000000000a2c0400db
:10516000000000000a2c0400000000000a2c0400cb
:10517000000000000a2c0400000000000a2c0400bb
:10518000000000000a2c0400000000000a2c0400ab
:10519000000000000a2c0400000000000a2c04009b
:1051a000000000000a2c0400000000000a2c04008b
:1051b000000000000a2c0400000000000a2c04007b
:1051c000000000000a2c0400000000000a2c04006b
:1051d000000000000a2c0400000000000a2c04005b
:1051e000000000000a2c0400000000000a2c04004b
:1051f000000000000a2c0400000000000a2c04003b
:10520000000000000a2c0400000000000a2c04002a
:10521000000000000a2c0400000000000a2c04001a
:10522000000000000a2c0400000000000a2c04000a
:10523000000000000a2c0400000000000a2c0400fa
:10524000000000000a2c0400000000000a2c0400ea
:10525000000000000a2c0400000000000a2c0400da
:10526000000000000a2c0400000000000a2c0400ca
:10527000000000000a2c0400000000000a2c0400ba
:10528000000000000a2c0400000000000a2c0400aa
:10529000000000000a2c0400000000000a2c04009a
:1052a000000000000a2c0400000000000a2c04008a
:1052b000000000000a2c0400000000000a2c04007a
:1052c000000000000a2c0400000000000a2c04006a
:1052d000000000000a2c0400000000000a2c04005a
:1052e000000000000a2c0400000000000a2c04004a
:1052f000000000000a2c0400000000000a2c04003a
:10530000000000000a2c0400000000000a2c040029
:10531000000000000a2c0400000000000a2c040019
:10532000000000000a2c0400000000000a2c040009
:10533000000000000a2c0400000000000a2c0400f9
:10534000000000000a2c0400000000000a2c0400e9
:10535000000000000a2c0400000000000a2c0400d9
:10536000000000000a2c0400000000000a2c0400c9
:10537000000000000a2c0400000000000a2c0400b9
:10538000000000000a2c0400000000000a2c0400a9
:10539000000000000a2c0400000000000a2c040099
:1053a000000000000a2c0400000000000a2c040089
:1053b000000000000a2c0400000000000a2c040079
:1053c000000000000a2c0400000000000a2c040069
:1053d000000000000a2c0400000000000a2c040059
:1053e000000000000a2c0400000000000a2c040049
:1053f000000000000a2c0400000000000a2c040039
:10540000000000000a2c0400000000000a2c040028
:10541000000000000a2c0400000000000a2c040018
:10542000000000000a2c0400000000000a2c040008
:10543000000000000a2c0400000000000a2c0400f8
:10544000000000000a2c0400000000000a2c0400e8
:10545000000000000a2c0400000000000a2c0400d8
:10546000000000000a2c0400000000000a2c0400c8
:10547000000000000a2c0400000000000a2c0400b8
:10548000000000000a2c0400000000000a2c0400a8
:10549000000000000a2c0400000000000a2c040098
:1054a000000000000a2c0400000000000a2c040088
:1054b000000000000a2c0400000000000a2c040078
:1054c000000000000a2c0400000000000a2c040068
:1054d000000000000a2c0400000000000a2c040058
:1054e000000000000a2c0400000000000a2c040048
:0c54f000000000000a2c04000000000076
:020000040000fa
:10560000cf1521000eff24000e01880000000000cd
:10561000000020000000e000020032000001200035
:105620002002880014000700c60107000000e00007
:1056300003003a00e0c3260001002000020037000a
:105640000000200001002000810f700001003200e6
:105650000f000700000020000000e0000200320000
:105660000000020000000000f06c020000000000da
:105670000040da000000fe00200421000000e000ed
:105680000200320000202000900188000000060087
:10569000a1028800800478000000eb001f003700a2
:1056a000e284440054a0b4009905ba00e2844400a6
:1056b00054a0b4009906ba00e284440054a0b40097
:1056c0000006eb00476fde00fd07b200ae01880068
:1056d000636ce10003003a000ad801000000eb000f
:1056e0000e003700606ce10008003a00004deb004e
:1056f0000a05e800020039003420ec000af0a0009e
:105700008b05e900f9ff3e00040037006168e10005
:10571000010032000086eb000b00070019c7ba0039
:105720000e04e0001905ba0003003a000a00e00088
:10573000dbff3a0000000600fe07b200ae02880060
:105740008a047800f5ff37000cd0a300e20f4d006b
:105750001c003b0089027800354dba000a05e800bc
:10576000020039003420ec000af0a0008b05e900ab
:105770000f003200254dba000a05e800020039008a
:105780003420ec000af0a0008b05e900080032008c
:105790000c00e0000600320015cdba000a05e80052
:1057a000020039003420ec000af0a0008b05e9006b
:1057b0008984e80054a0b4000b00e000e2ff3a0046
:1057c000000006009902ba00055d78008b05e9002b
:1057d000f7ff3200c82ade00055d78008b05e9007e
:1057e000f3ff32000c00e000f1ff320019ddba00d7
:1057f000eeff370064680400000000008a680400bf
:1058000000000000506904000000000076690400f8
:10581000000000003600f800809fbe00829fbe009e
:10582000849fbe00869fbe003200f8003400f8005e
:1058300010002000a00188000020200000d0fe0001
:105840000000fa00c00121004146800001087800f4
:10585000c07e2b00f21507000080fa003400f9002a
:105860003200f9004f03be004f02be004f01be00e0
:105870004f00be003600f900004006000c00fa00a0
:105880003007980041079800520798003e009000aa
:1058900064004000104078000000fb00e10620009a
:1058a000810f500011003200e1062000810f5000ee
:1058b00007003c0011032000810f5000230032003c
:1058c00021032000810f5000300032003f003700dc
:1058d00021072000810f50001400320051072000e2
:1058e000810f500009003200380037000e200700f9
:1058f0000000e000020032000080eb00540037009e
:105900000000eb00000f780032003700062007008f
:105910000000e000020032000080eb004c00370085
:1059200010002000000f78002a003700fe1f07003b
:105930000000e000020032000080eb00440037006d
:1059400020002000000f780022003700d08a80005d
:10595000e10f500002003a000080eb003c003700ed
:105960000111800000002800008060000000e000bd
:1059700003003a000040280031002000f11d07001c
:1059800030002000000f780012003700d08a80001d
:10599000e20f500002003a000080eb002c003700bc
:1059a0008111800000002800008060000000e000fd
:1059b00003003a000040280031002000571e070075
:1059c00040002000000f7800020037000080eb004c
:1059d0001f0037004e009000630060001007980021
:1059e0004e00900000f0a000200798001e009000dc
:1059f0000000e000030032001e009000e20f5000a3
:105a000006003a001e007800c300dd0040122100ad
:105a100000804000ae009000010878001e00900059
:105a2000e10f5000030032001e009000e20f500012
:105a300006003a001e007800c300dd00601221005d
:105a400000804000ae009000010878001e00780041
:105a50000080fa00000006000800fa00881f7800a5
:105a60001007980021079800320798001e00900048
:105a70000000e000030035001e009000e40f50001d
:105a8000020034000080eb00490037001e00900047
:105a90000000e00007003a00208980000000e000dc
:105aa000040035000001eb0001002400c0802c0040
:105ab00072ff07001e0090004300dd00e40040007c
:105ac0000012210000804000100078000000e0007b
:105ad00002003a000080eb00350037000000eb00c8
:105ae000000f78002d0037002e0090001e044000ab
:105af0001e0090004300dd008080e80000122100bd
:105b0000008040001000780000000100004c780088
:105b10001e0090004300dd00e40040000012210060
:105b200000804000900078000000240000806000a9
:105b30000000e000070032002e0090001e00400030
:105b400010407800ea4f500002003a001e0fe800b3
:105b5000160037001e0090004300dd00e400400006
:105b60000012210000804000900078000000240016
:105b7000008060000000e000070032002e0090006e
:105b80001e00400010407800ed4f500002003a0027
:105b90001e0fe800050037001e0fe8003e009000d1
:105ba0009e007800808f5000cfff39001e007800e3
:105bb0004f0478000080fa00000006000800fa0098
:105bc0001007980021079800320798001e009000e7
:105bd0000000e000030035001e009000e40f5000bc
:105be000020034000080eb00470037001e009000e8
:105bf000e10f500007003a00708980000000e000cb
:105c0000040035000001eb001100240020812c006d
:105c10001aff07001e009000e20f500007003a0034
:105c2000b08980000000e000040035000001eb00b6
:105c30001100240090812c0010ff07001e0090002e
:105c40004300dd00e600400000122100008040001b
:105c5000100078000000e00002003a000080eb0035
:105c6000290037000000eb00000f7800210037000a
:105c70001e0090004300dd00e600400000122100fd
:105c80000080400090007800000024000080600048
:105c90000000e0000d0032002e0090001e004000c9
:105ca00010407800ea4f500008003a001e009000b3
:105cb000c300dd0000122100008040009000780049
:105cc000a0c0b30001000100090037001e009000d1
:105cd000c300dd0000122100008040009000780029
:105ce0002e0090001e0040001040780001000100ce
:105cf0001e0fe8003e0090009e007800808f50004c
:105d0000dbff39001e0078000080fa00000006006a
:105d10000200fa00000f78000000eb000080fa009b
:105d2000000006000800fa00000f78001207980033
:105d300023079800310798006000b8000080fa003f
:105d40000000060000000500839f68000100e000dd
:105d500002003d0060001000e08018000300e00039
:105d600002003d0060011100e08119003b000700c6
:105d70004f00e00002003b0060001000e0801800cf
:105d8000000006001400200099033700f4ff2f00e4
:105d9000970337000001be001b0007000470a70036
:105da00003f0a10003f8a30013003a006509b10055
:105db00010003200090035006928e10002003500ba
:105dc000010028000000050000004000818048001c
:105dd0008502e900fcff3a0000000600f88f42004f
:105de000050035008100d1000080d3008502e80065
:105df000fcff3a00000006008000eb0000000500f8
:105e00006011b80095033700c70ade00f107b20041
:105e1000f50fb20008003200e1cf4200020032006c
:105e20000170a00024000500810f70000100320005
:105e30000408050044000500810f700002003a00cc
:105e4000140005008502e9000000400081c0480000
:105e5000fcff3b000170a000240005006022b80098
:105e6000060220000000d0008180d2000482d2000f
:105e70008582d2000000a0000202520083825a00f4
:105e8000030031000202420083824a000000a100a8
:105e90000603e900f3ff3a000000060007f82700b8
:105ea000078361000638e10004003a00f70720008c
:105eb000878361008703710001003a0003f0a200ac
:105ec000889fbe008a9fbe008c9fbe00470ade00ee
:105ed0000480a100c71ade000580a1000700280089
:105ee0000785600087856100f70f20000720e1002b
:105ef0009e0032000728e1009c0032000106780075
:105f00000400e000b4003200f70720008780600042
:105f10000170a0000500e000c0003200f70720007b
:105f2000878161000370a000050652000f003a004f
:105f30000b50e1000b0032000308e10002003a00c0
:105f40000200e1007e003200020450008384580009
:105f5000040031000001fd008101fd008402fd000c
:105f60008a05fd006044b800210037000520e100eb
:105f700005003d000001fd008101fd008402fd00df
:105f80008a05fd00050652007a60e1000500350033
:105f90000170a1004722dd00848070008a807000bb
:105fa000630037006044b800ef02660007ff2f006f
:105fb000070666000500e00006003400f0831200ca
:105fc0008714dd000511de00071bdd0006017100ee
:105fd0008519de007060e1000500350009047800d5
:105fe00082047800030178008001eb0070065600ff
:105ff0000b50e10003003a0002004000838048009b
:106000000400370060041400e0841c000200580003
:10601000838058000188a300060032008100d1006f
:106020000080d3008984d3000884d3000402e800f0
:10603000270037000178a30025003a000100e000a6
:10604000030032008186cf00698656000a003700bf
:106050008c0020000000e00004003a0009007800f5
:10606000880478000004eb00700252008086cf00a4
:106070000d0646000c06e9007060e10006003500e0
:106080008000780009007800880478000004eb00a4
:1060900070065600700252000c00e0000c00340044
:1060a0008c08dd00f00316000703de008680700018
:1060b0000c00dd00074bde00060070008c4cdd009c
:1060c0000743de00868474000c44dd000c0252009d
:1060d0006120e10020003500610160000700280018
:1060e00087816400f7ff270087836400070374003b
:1060f0000300e00006003200820373000400320057
:106100000000e800e08048000188a3000e003a008b
:10611000f70f20000720e1004a003d000170a100b8
:106120004722dd00810072008a8070000000be00fe
:106130004f06be004f05be004f04be000000060023
:106140006000b800faff37008100d1000080d30062
:106150000402e800eeff37000401780089017400b2
:10616000a10107008a807000f1ff3700f7010700e6
:10617000070278000001fd008101fd00f301070026
:1061800087027800850372000778a30004003200bc
:106190000001fd008101fd0006020700e4ff370059
:1061a000850362000768a300080032000b50e1007d
:1061b00003003200f0ff2f00f1ff2700dcff370063
:1061c0000001fd008101fd00d9ff37000468a30034
:1061d000d7ff3200faff3700f8ff270088836000fe
:1061e0000b003a000000e00009003a00830364005d
:1061f00082837300020032000200be00ccff370031
:106200000b50e100ceff3a000200be00c8ff37008d
:1062100014002000810064003eff3700f8ff2700d3
:106220008883610004003a000200e00002003a00a6
:106230008c007800beff3700150020008301640049
:1062400039ff370001f827000000200081007500a9
:10625000b7ff3700889fbe008a9fbe008c9fbe009c
:106260001b0020000202be00058668000600280010
:10627000060666004709de00f20fb2008200320017
:106280000243e80080003200c729de00f30fb200ad
:106290007d0032000343e8007b003200f107b200ca
:1062a0000170a000f507b2000570a000c708dd006e
:1062b0004903de00868070004700dd00c72add004c
:1062c0004923de00868272004722dd00030551006b
:1062d0000403500085835800030031000000400093
:1062e000818048000a05e9008c1f78008a9fbe0063
:1062f00004005000858058000402420085824a0054
:1063000000004000818048000005eb000004be0052
:106310006033b8000406be000d48e10056003100ad
:10632000110009004dccd8000c01b8000d02b800d6
:106330008481410060824a008283530003045c0030
:1063400084845c0060055d000a00e00025003a00de
:10635000800578000d40e100490031008800780098
:1063600007007800110009004d88d8000c01b80022
:106370000d02b8008481410060824a006003110070
:1063800083835b0004045c00e0845c000900e0009f
:1063900021003a004f01be000300e0002b00320054
:1063a000e3016000070673008c8171000100320078
:1063b000640070004200de004e5edd000c007000e4
:1063c000c258de0001e0a00083010700cf01780081
:1063d000818071004f06be004f05be004f04be0015
:1063e000000006008c8343000d044c00e0844c0048
:1063f00060054d000000e9000a00e000d4ff320013
:106400008c8343000d044c00e0844c0060054d007b
:106410000000e900ceff37000c0343008d834b00e2
:1064200060044c00e0844c000000e9000900e0003a
:10643000d8ff32000c0343008d834b0060044c00f6
:10644000e0844c000000e900d2ff37004200de008b
:106450004e5edd000c007000c258de0001e0a000be
:10646000cf0178000300e000daff32006000100086
:10647000e0801800d7ff3700f0ff2f00aaff370099
:10648000f0ff2f00b9ff37000404be002f01070002
:10649000870678000004fd008104fd002b01070041
:1064a000078366000678a300030032000960a70096
:1064b0000800be002c0037000d78a3000200320057
:1064c0000800be00280037000778a30026003a0025
:1064d00001f0a10009f0a1000668a300030032004a
:1064e000f1ff2700f0ff2f00baff37000d68a3006f
:1064f000030032000800be008c807000b5ff37003a
:106500000768a30007003a000648a3000300320012
:10651000f1ff2700f0ff2f00aeff37000d48a3006a
:10652000030032006000b8008c807000a9ff3700c3
:106530000748a3000400320001f8270000002000f3
:106540008c807000a3ff3700760107000004fd0077
:106550008104fd0002057800720107000802be00f8
:106560008a01780059ff37000160a0001202200064
:10657000f280880097ff37000100e000120032002f
:106580000500e00010003200889fbe008a9fbe0018
:106590008c9fbe000006eb0001f8a3000300320050
:1065a00060001000e08018000cf0a00005f8a300c7
:1065b0000300320060021200e0821a000cf0a20018
:1065c0008005eb0041ff37006000b80002000500c5
:1065d000038368000700280007036300470ade0002
:1065e0000480a100c71ade000580a100f70f20007b
:1065f0000720e100420032000728e100400032009d
:10660000889fbe008a9fbe008c1f7800f107b200f1
:10661000f307b2000400e000640032000170a00043
:106620000500e000680032000370a000850542000c
:10663000eb07b1000204b8000302b80084844400f0
:1066400060854a00020ab800848444000a854a0032
:10665000030ab80004054500040033000804d00014
:106660008984d2000a85d2008b05e9006158e100d7
:106670003d003500021020000901610003082000e0
:1066800089816100f7072000878364000886730012
:10669000c84cde00c853dd00878474004855de0016
:1066a0000300e0000600320082037600040032009e
:1066b0008904e80060054d000a88a3000c003a0038
:1066c000f70f20000758e10044003d000a70a100c8
:1066d000c75ddd000a8575008a0073000900780037
:1066e0004f0678004f05be004f04be0000000600b4
:1066f0000a05d1008984d3008b05e800f0ff37003c
:10670000881f7800060478009000070007027800d0
:106710000001fd008101fd008c0007008702780068
:10672000850372000778a300050032000001fd0018
:106730008101fd009f0007004f0478000000060063
:10674000850372000748a30003003200f0ff2f000a
:10675000f1ff2700f8ff37000000200001f82700b4
:1067600088807000f4ff3700880178004848dd0019
:10677000808171004848de00c850dd0001007000d3
:10678000c850de00060478000b01780016000700f0
:1067900088807000d2ff37000500e000050032005d
:1067a000170020003a0007009dff370081037000aa
:1067b000f9ff3a00860078004f0678004f05be00ca
:1067c0004f04be000000050083037100f9ff320092
:1067d000270020002e00070094ff370001f8270053
:1067e00086807000f4ff37000100e00026003200d0
:1067f000610111007810e10023003c006022b80024
:106800007010e1000400350080027800010078007b
:106810008000eb00700151000200e000090034002c
:1068200070031100062add00822ade008603dd00e7
:10683000878272000200de00860bdd000700700018
:106840008208de0084817100f4ff27000482620068
:10685000848171000400280084826200610260006b
:1068600005f0a60000000600048271000700320057
:106870000000e800e0804800000006000002be00c2
:106880006000b800efff37006000b80000000600ad
:10689000889fbe000004eb006138e10016003a005a
:1068a0000100e00008003a00c800de004800dd00fa
:1068b000880020000100e00003003a00c800de006c
:1068c0004800dd00680444008184cf00e98454005e
:1068d000060034008908dd00f08314008703de0021
:1068e000878070000900dd00090444006102140083
:1068f0004f04be00000006000300e00008003a005c
:10690000c811de004811dd00880020000300e0000f
:1069100003003a00c811de004811dd00680444009d
:106920008384cf00e9845400060034008919dd0017
:10693000f08314008713de00878171000911dd00e8
:1069400009044400e1021400e9ff37002700200099
:1069500001f0a70017002000470bde00f60fb20081
:10696000040032000643e8000a0032004702b30088
:106970000000060001037800f607b200060370006d
:1069800002003a000703b300000006008702b300cc
:106990000000060001037800f607b200060370004d
:1069a000020032000770a000000006000760a0008f
:1069b000000006000478a300040032000578a3005c
:1069c000030032000168a30001003a000200be008b
:1069d0000160a00000000600810170002700320065
:1069e0008002eb0001f8a3000300320060001000f9
:1069f000e080180015002000f40720000202420089
:106a000020003400f7032000870360000604200004
:106a10000003630002082000000161004700de005f
:106a2000c909dd0000807100c708de000600e00033
:106a30000800320087037100060032001000b00029
:106a40000180b0000188a30002003200c108de000e
:106a50000402e800f107b200f30f20000320e10078
:106a600003003d004722dd0081007200290037004d
:106a700001f827000000eb00260037006000b80096
:106a800000000600680212007f20e10002003400ce
:106a90006000b8001f0037006011b8007020e100ee
:106aa0000400350080017800010078008000eb00d0
:106ab000700252000400e00009003400f0031200ec
:106ac0000719dd008419de000703dd0086817100ef
:106ad0000400de00070bdd00060070008408de0005
:106ae000f7ff2700838363008703710006002800f7
:106af00003036300070032000700e00003003a00d0
:106b00006101600002817300020032001000b000d9
:106b10000180b0000500a6000000060001f0a00002
:106b2000000006004f0ade004709de00f107b20050
:106b3000f20fb2000b003200f207b1000170a000aa
:106b4000c708dd00c901de00838070004700dd005a
:106b50000400a6000000060060001000e08018009d
:106b600000000600810f700001003a0000000600de
:106b70008182cf000500e00010003e008082cf003f
:106b8000ee8242007028e1000400390007003e0058
:106b9000800078000000eb000e00370070831200c8
:106ba0008600de000500dd000a0037007083520019
:106bb0008600dd000000eb0006003700e282520094
:106bc0008508dd00708312000603de0086807000f9
:106bd0000500dd007507b0000501ea000400a6000d
:106be0000000060060001000e080180000000600b1
:106bf000889fbe008a9fbe00841f78006c0007003b
:106c00004f00780011003300f0ff2f00838f6c00dd
:106c100006003b00040565000a00a70008003700d5
:106c200009f0a6001000200008003700820f540071
:106c3000838f5c00030039001000200001003e003b
:106c40000000200009f0a7000000ea004f05be0088
:106c50004f04be000000e00000000600889fbe0058
:106c60008a9fbe00008270000402710004827100dd
:106c7000260032000004be000200be006011b80011
:106c80006b092000950220000182cf000a00390024
:106c90000541b1000082cf00070039000541b10075
:106ca0000982cf00040039000541b1000882cf00fd
:106cb000010039000541b1000542520012003200c6
:106cc0000a003b0082817100610164008100d100f3
:106cd0000080d3008984d3000884d3008b05e800aa
:106ce0000442e800f7ff3a000700370008044400b8
:106cf00089844c0000004800818048008b05e90031
:106d00000442e900f9ff3a00030007004f05be0006
:106d10004f04be0000000600810020006180550085
:106d20000b003d000b00200061fe2f000100e10080
:106d30001d00340082817100610164008904d1006a
:106d40000884d3000000e800faff3a007100200038
:106d5000610064000300700002006000090032005e
:106d600061044400e0844c000988a500050032005d
:106d70008b05e8006808e10002003a008904d100b0
:106d80000884d300f20f20000258e10005003d0006
:106d9000c75ddd00f907b200898075000800780042
:106da000000006000bf827008b00780000000500ab
:106db0000004be0014fc07000003be000405be0072
:106dc0000200be0010fc0700844f750000000600a2
:106dd000889fbe008a9fbe00800478000200e00009
:106de0005b00320001407800814c780082814400d1
:106df000f1f99f00e20f51005500360091449800d0
:106e0000a1449800e1f99f00d1f99f00e60f5100dd
:106e10004f003600b1449800c1f99f00e80f5100bf
:106e20004b0036000905ea00630565000a8444004a
:106e30000a055100c1ff2f00010565000080fb001d
:106e40008000eb0012102000131020005c000700ef
:106e5000008cbe000a01440060b99f0071b99f0018
:106e6000e80f55003a0036002004980031049800dd
:106e7000400498005104980020b99f0031b99f0048
:106e800040b99f0051b99f00f80f550030003600ff
:106e90006004980071049800000c9800110c980090
:106ea000200c9800310c9800400c9800510c980070
:106eb00020b19f0031b19f0040b19f0051b19f00b0
:106ec00060b19f0071b19f0000b99f0011b99f0090
:106ed0006401640078014100020444000205550089
:106ee0006011b8000203be000002be000403be0031
:106ef0006022b800000072008180720002017300fd
:106f00008381730010003700009cbe000294be0015
:106f1000400498005104980062049800730498009b
:106f2000000c9800110c9800220c9800330c98006b
:106f3000400c9800510c9800620c9800730c98005b
:106f40000a02b1000802b000ff0f5500eeff3e003c
:106f5000090078004f05be004f04be000000060087
:106f600080007800040037003104e00002003a009d
:106f70000000510000000600010178000108a30094
:106f8000f9ff3a008101780031017800f4ef2f0019
:106f9000020242000281ea000201620004082800a5
:106fa00004016100f7ff32008300780001017800de
:106fb0003104e000fdff3a0000005100000006002f
:106fc000020ab900001bb9000200b80081004200ab
:086fd0008100430000000600ef
:020000040000fa
:106fd800556e0000686100006e6400006c6500007a
:106fe80064200000696e0000746500007272000081
:106ff80075700000742c000020000000756e000001
:107008006b6e00006f7700006e0000006473000074
:107018005049000043330000334500005031000060
:1070280032380000475000003530000032000000c0
:1070380041330000004400006576000069630000e9
:107048006520000049440000203d000020000000a9
:1070580020280000002900002c2000007265000094
:1070680076690000736900006f6e00002000000060
:10707800290a0000000a00000a2a00002a2a000043
:107088002a2a00002a2a00002a2a00002a2a0000a8
:107098002a2a00002a2a00002a2a00002a2a000098
:1070a8002a2a00002a2a00002a2a00002a2a000088
:1070b8002a2a00002a2a00002a2a00002a2a000078
:1070c8002a2a00002a2a00002a2a00002a2a000068
:1070d8002a2a00002a2a00002a2a00002a2a000058
:1070e8002a2a00002a0a00002a200000574100002e
:1070f800524e0000494e0000472000002d2000009d
:10710800746800006973000020700000726f00004e
:1071180067720000616d0000207700006173000055
:10712800206300006f6d0000706900006c6500004e
:1071380064200000666f0000722000007468000080
:1071480065200000777200006f6e00006720000065
:10715800202a00000a2a0000206300006869000055
:10716800702e0000205400006869000073200000a1
:10717800707200006f670000726100006d200000ef
:107188006d61000079200000707200006f640000db
:107198007563000065200000756e000065780000ca
:1071a80070650000637400006564000020620000e0
:1071b80065680000766900006f72000021200000f9
:1071c8002a0a00002a2000004564000069740000b3
:1071d80020740000686500002068000065610000f8
:1071e8006465000072200000666900006c6500009c
:1071f80073200000746f000020700000726f0000a0
:1072080070650000726c0000792000006465000061
:10721800666900006e65000020740000686900005f
:10722800732000006368000069700000202a0000d5
:107238000a2a0000206100006e640000207400002b
:107248006f200000696e0000737500007265000011
:10725800206300006f720000726500006374000014
:10726800206f000070650000726100007469000002
:107278006f6e00002e20000020200000202000005b
:1072880020200000202000002020000020200000f6
:107298002020000020200000202000002a0a0000f2
:1072a8002a200000202000002020000020200000cc
:1072b80020200000202000002020000020200000c6
:1072c80020200000202000002020000020200000b6
:1072d80020200000202000002020000020200000a6
:1072e8002020000020200000202000002020000096
:1072f8002020000020200000202000002020000086
:107308002020000020200000202a00000a2a000077
:10731800204e00004f540000453a0000204900006c
:107328006620000074680000697300002077000080
:1073380061730000206300006f6d00007069000039
:107348006c65000064200000666f00007220000079
:107358007468000065200000636f0000727200000e
:107368006563000074200000636800006970000015
:107378002c200000202000002a0a00002a200000fb
:10738800616e0000642000006f6e00006c790000e0
:10739800206f000063630000757200007320000016
:1073a80061740000207000006f77000065720000b3
:1073b8002d6f00006e200000286e00006f74000022
:1073c8002064000075720000696e000067200000ec
:1073d800612000004d4300004c52000020200000b6
:1073e80020200000202a00000a2a00002072000045
:1073f8006573000065740000292c000020760000e9
:107408006572000069660000792000007468000059
:107418006174000020410000564400004420000030
:10742800616e0000642000004156000053530000c4
:107438002061000072650000206300006f6e00008c
:107448006e65000063740000656400002e20000073
:10745800202000002a0a00002a2000004f6e0000a9
:1074680020740000686500002050000049430000b7
:107478003234000048330000324700005032000028
:10748800303200002c2000006e6f000074200000d5
:10749800636f00006e6e0000656300007469000091
:1074a8006e670000204100005644000044200000a0
:1074b80020200000202000002020000020200000c4
:1074c800202a00000a2a000020700000726f0000c5
:1074d8006475000063650000732000007468000094
:1074e80069730000206d000065730000736100007f
:1074f80067650000206f00006e6c000079200000b6
:1075080061740000207000006f7700006572000051
:107518002d750000702e00002020000020200000a3
:107528002020000020200000202000002020000053
:107538002a0a00002a2a00002a2a00002a2a000013
:107548002a2a00002a2a00002a2a00002a2a0000e3
:107558002a2a00002a2a00002a2a00002a2a0000d3
:107568002a2a00002a2a00002a2a00002a2a0000c3
:107578002a2a00002a2a00002a2a00002a2a0000b3
:107588002a2a00002a2a00002a2a00002a2a0000a3
:107598002a2a00002a2a00002a2a00002a2a000093
:1075a8000a000000466100007374000020520000c9
:1075b800432000004f730000630a000000460000eb
:1075c800617300007420000052430000204f000047
:1075d80073630000207700006974000068200000d1
:1075e800504c00004c0a0000005000007269000076
:1075f8006d61000072790000204f00007363000085
:1076080020280000585400002c2000004853000097
:107618002c20000045430000290a0000005000000b
:10762800726900006d61000072790000204f00004f
:107638007363000020280000585400002c2000002c
:10764800485300002c20000045430000292000007a
:107658007769000074680000205000004c4c00005e
:107668000a00000053650000636f00006e640000ac
:1076780061720000792000004f730000630a000067
:10768800004c00006f770000205000006f7700006a
:107698006572000020520000432000004f73000074
:1076a800630a0000004600006173000074200000b7
:1076b80052430000204f0000736300002f31000088
:1076c800360a0000004600006173000074200000c4
:1076d80052430000204f0000736300002f4e00004b
:1076e8000a000000556e00006b6e00006f77000006
:1076f8006e2000006f730000636900006c6c00006e
:10770800617400006f72000020740000797000003e
:10771800652e0000000a000044650000766900003c
:1077280063650000206800006173000020620000ab
:10773800656500006e200000696e0000207300007f
:107748006c65000065700000206d00006f6400002b
:10775800650a0000000a0000446500007669000020
:10776800636500002068000061730000206200006b
:10777800656500006e200000696e00002069000049
:10778800646c0000652000006d6f000064650000f7
:107798000a0000000a5200006573000065740000ca
:1077a8002063000061750000736500003a20000046
:1077b800005000006f770000657200002d6f000018
:1077c8006e2e00000a000000536f0000667400006f
:1077d80077610000726500002052000065730000a8
:1077e800657400002e0a0000005700006174000054
:1077f80063680000646f000067200000546900009f
:107808006d6500006f750000743a000020000000ec
:107818000a0000004d4300004c52000020610000a7
:107828007373000065720000746900006f6e0000d9
:107838002e0a000000420000726f0000776e000000
:107848002d6f0000757400002e0a0000005400001f
:107858007261000070200000436f00006e66000037
:107868006c690000637400002e0a000000490000e3
:107878006c6c000065670000616c0000204300002c
:107888006f6e000064690000746900006f6e00008c
:107898002e0a0000004300006f6e000066690000b9
:1078a8006775000072610000746900006f6e000067
:1078b800204d0000697300006d61000074630000d2
:1078c800682e00000a000000556e00006b6e000074
:1078d8006f7700006e20000072650000736500007d
:1078e800742e00000a00000045720000726f00004c
:1078f8007220000074720000617000007065000062
:10790800643a00002000000050720000696f000017
:1079180072690000747900003a200000002c000011
:107928002056000065630000746f0000722000009c
:107938006e7500006d620000657200003a2000005c
:10794800000a00000a00000045720000726f000083
:1079580072200000696e0000202e00002e2f00000b
:107968002e2e00002f6c0000696200002f6c0000b2
:10797800696200002f730000726300002f7000001e
:1079880069630000323400005f750000746900000c
:107998006c2e0000632000006c6900006e6500001a
:1079a80020340000373800003a200000415300001e
:1079b800534500005254000028750000313600007d
:1079c8005f62000072670000682000003c3d000014
:1079d800203100002920000066610000696c000069
:1079e800656400002e0a0000004500007272000065
:1079f8006f720000206900006e2000002e2e00002b
:107a08002f2e00002e2f00006c690000622f00004e
:107a18006c690000622f000073720000632f000081
:107a28007069000063320000345f00007574000064
:107a3800696c00002e630000206c0000696e000075
:107a48006520000034380000343a0000204100006e
:107a5800535300004552000054280000665f0000a0
:107a680062720000672000003c20000036350000ec
:107a780035330000352e000035290000206600004f
:107a8800616900006c650000642e00000a000000b7
:107a980045720000726f000072200000696e0000dd
:107aa800202e00002e2f00002e2e00002f6c00002c
:107ab800696200002f6c0000696200002f730000eb
:107ac800726300002f6400006174000061580000b8
:107ad80066650000724900006d7000006c2e0000a1
:107ae800632000006c6900006e650000203900000a
:107af800303a000020410000535300004552000076
:107b080054280000464100004c530000452900005d
:107b180020660000616900006c650000642e0000aa
:107b28000a00000045720000726f00007220000019
:107b3800696e0000202e00002e2f00002e2e00005f
:107b48002f6c0000696200002f6c00006962000061
:107b58002f730000726300002f640000617400003e
:107b68006158000066650000724900006d700000f1
:107b78006c2e0000632000006c6900006e65000038
:107b880020340000323800003a2000004153000041
:107b9800534500005254000028460000414c0000a4
:107ba800534500002920000066610000696c000050
:107bb800656400002e0a0000004500007272000093
:107bc8006f720000206900006e2000002e2e000059
:107bd8002f2e00002e2f00006c690000622f00007d
:107be8006c690000622f000073720000632f0000b0
:107bf800646100007461000058660000657200004e
:107c0800496d0000706c00002e630000206c0000bd
:107c1800696e00006520000034340000393a000025
:107c28002041000053530000455200005428000032
:107c3800464100004c530000452900002066000022
:107c4800616900006c650000642e00000a000000f5
:107c580045720000726f000072200000696e00001b
:107c6800202e00002e2f00002e2e00002f6c00006a
:107c7800696200002f6c0000696200002f73000029
:107c8800726300002f6400006174000061580000f6
:107c980066650000724900006d7000006c2e0000df
:107ca800632000006c6900006e650000203400004d
:107cb800353900003a2000004153000053450000c8
:107cc80052540000286300005f6f000075740000c4
:107cd8004368000061720000203d00003d20000064
:107ce800434d0000445f0000544f00004b45000026
:107cf8004e29000020660000616900006c650000e4
:107d0800642e00000a00000045720000726f000037
:107d180072200000696e0000202e00002e2f000047
:107d28002e2e00002f6c0000696200002f6c0000ee
:107d3800696200002f730000726300002f64000066
:107d48006174000061580000666500007249000017
:107d58006d7000006c2e0000632000006c6900004c
:107d68006e65000020340000383800003a2000001a
:107d780041530000534500005254000028460000bb
:107d8800414c0000534500002920000066610000b6
:107d9800696c0000656400002e0a000000450000c0
:107da800727200006f720000206900006e200000ef
:107db8002e2e00002f2e00002e2f00006c690000d0
:107dc800622f00006c690000622f000073720000cf
:107dd800632f0000646100007461000058660000b1
:107de80065720000496d0000706c00002e63000091
:107df800206c0000696e000065200000353100002d
:107e0800353a00002041000053530000455200005d
:107e180054280000464100004c530000452900004a
:107e280020660000616900006c650000642e000097
:107e38000a00000045720000726f00007220000006
:107e4800696e0000202e00002e2f00002e2e00004c
:107e58002f6c0000696200002f6c0000696200004e
:107e68002f730000726300002f640000617400002b
:107e78006158000066650000724900006d700000de
:107e88006c2e0000632000006c6900006e65000025
:107e980020350000383900003a2000004153000026
:107ea800534500005254000028460000414c000091
:107eb800534500002920000066610000696c00003d
:107ec800656400002e0a0000006e00006f200000ac
:107ed80065720000726f0000720000007265000099
:107ee8007065000061740000656400002063000094
:107ef8006f6d00006d6100006e640000007400008a
:107f0800696d0000656f000075740000006900006d
:107f18006e740000657200007275000070740000d5
:107f280065640000206300006f6d00006d61000053
:107f38006e640000007500006e730000706500003c
:107f4800636900006669000065640000206900003c
:107f58006e64000065780000006900006e6400002f
:107f680065780000207400006f6f00002068000032
:107f7800696700006800000076610000726900000f
:107f8800616200006c65000020730000697a0000df
:107f9800652000006d690000736d000061740000c9
:107fa8006368000000720000656100006420000042
:107fb8006f6e00006c79000020760000617200008e
:107fc80069610000626c000065000000696c0000d7
:107fd8006c650000676100006c200000766100009d
:107fe80072690000616200006c6500002073000087
:107ff8007065000063690000666900006361000045
:10800800746900006f6e0000004500007272000085
:108018006f720000206900006e2000002e2e000004
:108028002f2e00002e2f00006c690000622f000028
:108038006c690000622f000073720000632f00005b
:1080480064610000746100005866000065720000f9
:10805800496d0000706c00002e630000206c000069
:10806800696e00006520000036310000333a0000d8
:1080780020410000535300004552000054280000de
:1080880028720000656300006569000076650000dd
:1080980045720000726f0000722000003e20000050
:1080a8003029000020260000262000002872000049
:1080b8006563000065690000766500004572000090
:1080c800726f0000722000003c2000004e55000036
:1080d8004d5f000045520000524f0000525f000003
:1080e800434f0000444500005329000029200000a8
:1080f80066610000696c0000656400002e0a0000db
:108108000000000045720000726f0000722000003d
:10811800696e0000202e00002e2f00002e2e000079
:108128002f6c0000696200002f6c0000696200007b
:108138002f730000726300002f6400006174000058
:108148006158000066650000722e00006320000080
:108158006c6900006e65000020340000323a0000af
:1081680020410000535300004552000054280000ed
:10817800755f000076610000724900006e640000bf
:1081880065780000203c00002036000032290000fd
:1081980020660000616900006c650000642e000024
:1081a8000a00000045720000726f00007220000093
:1081b800696e0000202e00002e2f00002e2e0000d9
:1081c8002f6c0000696200002f6c000069620000db
:1081d8002f730000726300002f64000061740000b8
:1081e8006158000066650000722e000063200000e0
:1081f8006c6900006e65000020340000343a00000d
:10820800204100005353000045520000542800004c
:10821800707600005f640000617400006120000057
:10822800213d000020280000287600006f6900002a
:10823800642a000029300000292900002066000077
:10824800616900006c650000642e00000a000000ef
:1082580045720000726f000072200000696e000015
:10826800202e00002e2f00002e2e00002f6c000064
:10827800696200002f6c0000696200002f73000023
:10828800726300002f6400006174000061580000f0
:1082980066650000722e0000632000006c69000013
:1082a8006e65000020340000363a000020410000ce
:1082b8005353000045520000542800002875000060
:1082c8005f730000697a0000652000003e2000000e
:1082d8003029000020260000262000002875000014
:1082e8005f730000697a0000652000003c3d0000d3
:1082f8002028000032350000352000002b20000027
:108308003129000029290000206600006169000069
:108318006c650000642e00000a0000004572000031
:10832800726f000072200000696e0000202e0000ad
:108338002e2f00002e2e00002f6c00006962000016
:108348002f6c0000696200002f7300007263000048
:108358002f64000061740000615800006665000029
:10836800722e0000632000006c6900006e6500003a
:1083780020390000333a0000204100005353000028
:108388004552000054280000755f00007661000027
:10839800724900006e64000065780000203c00000f
:1083a80020360000322900002066000061690000c4
:1083b8006c650000642e00000a0000004572000091
:1083c800726f000072200000696e0000202e00000d
:1083d8002e2f00002e2e00002f6c00006962000076
:1083e8002f6c0000696200002f73000072630000a8
:1083f8002f64000061740000615800006665000089
:10840800722e0000632000006c6900006e65000099
:1084180020310000303000003a20000041530000b5
:1084280053450000525400002870000058660000b0
:108438006572000056610000722d00003e70000059
:10844800753800005f64000061740000612000005e
:10845800213d000020280000287600006f690000f8
:10846800642a000029300000292900002066000045
:10847800616900006c650000642e00000a000000bd
:108488004461000074610000207200006563000010
:1084980065690000766500002065000072720000c2
:1084a8006f7200003a2000000000000055410000f3
:1084b8005254000031200000706100007269000011
:1084c8007479000020650000727200006f7200006d
:1084d8000a000000554100005254000031200000fd
:1084e80066720000616d0000696e00006720000080
:1084f80065720000726f0000720a000000550000eb
:108508004152000054310000206f000076650000e1
:1085180072720000756e0000206500007272000023
:108528006f7200000a00000045720000726f0000c0
:1085380072200000696e0000202e00002e2f00001f
:108548002e2e00002f6c0000696200002f6c0000c6
:10855800696200002f730000726300002f70000032
:1085680069630000323400005f750000617200002a
:10857800742e0000632000006c6900006e65000026
:1085880020330000363100003a200000415300003b
:108598005345000052540000287500003332000093
:1085a8005f620000617500006452000061740000a1
:1085b800652000003e3d0000203100003030000002
:1085c800304c00002920000066610000696c000042
:1085d800656400002e0a00000055000041520000aa
:1085e80054320000207000006172000069740000bd
:1085f8007920000065720000726f0000720a0000a6
:10860800005500004152000054320000206600006e
:10861800726100006d6900006e670000206500004f
:10862800727200006f7200000a00000055410000dd
:1086380052540000322000006f760000657200007e
:10864800727500006e20000065720000726f0000f5
:10865800720a000000450000727200006f7200008c
:10866800206900006e2000002e2e00002f2e000032
:108678002e2f00006c690000622f00006c6900005a
:10868800622f000073720000632f00007069000001
:1086980063320000345f00007561000072740000ee
:1086a8002e630000206c0000696e00006520000049
:1086b80037350000313a00002041000053530000d4
:1086c800455200005428000075330000325f000056
:1086d800626100007564000052610000746500006a
:1086e800203e00003d200000313000003030000006
:1086f8004c29000020660000616900006c650000dc
:10870800642e00000a00000045720000726f00002d
:1087180072200000696e0000202e00002e2f00003d
:108728002e2e00002f6c0000696200002f6c0000e4
:10873800696200002f730000726300002f70000050
:1087480069630000323400005f7300006572000046
:10875800696100006c2e0000632000006c69000055
:108768006e65000020380000313a00002049000002
:108778006e760000616c00006964000020550000fe
:10878800415200005400000030780000004500000d
:10879800727200006f720000206900006e200000f5
:1087a8002e2e00002f2e00002e2f00006c690000d6
:1087b800622f00006c690000622f000073720000d5
:1087c800632f00007069000063320000345f00000e
:1087d8007365000072690000616c00002e63000080
:1087e800206c0000696e000065200000323900002e
:1087f800363a0000204900006e760000616c0000e7
:108808006964000020550000415200005400000037
:1088180045720000726f000072200000696e00004f
:10882800202e00002e2f00002e2e00002f6c00009e
:10883800696200002f6c0000696200002f7300005d
:10884800726300002f70000069630000323400007a
:108858005f73000065720000696100006c2e000003
:10886800632000006c6900006e6500002033000082
:10887800333500003a200000496e000076610000a0
:108888006c6900006420000055410000525400004b
:108898000000000050c3000030750000204e0000aa
:1088a8001027000088130000b80b0000d007000054
:1088b800e8030000f40100002c010000c8000000db
:1088c80064000000320000001e00000014000000d8
:1088d8000a0000000500000003000000020000007c
:1088e800010000000503000002010000321e000024
:1088f800140a00000503000002010000050300003f
:10890800020100000503000002010000457200009a
:10891800726f000072200000696e0000202e0000b7
:108928002e2f00002e2e00002f6c00006962000020
:108938002f6c0000696200002f7300007263000052
:108948002f70000069630000323400005f7400007b
:10895800696d0000657200002e630000206c000045
:10896800696e000065200000353800003a200000dc
:10897800415300005345000052540000286600008f
:108988005f740000696300006b730000203c000006
:108998002036000035350000333500002e35000044
:1089a8002920000066610000696c00006564000011
:1089b8002e0a000000450000727200006f7200006d
:1089c800206900006e2000002e2e00002f2e0000cf
:1089d8002e2f00006c690000622f00006c690000f7
:1089e800622f000073720000632f0000706900009e
:1089f80063320000345f0000746900006d65000098
:108a0800722e0000632000006c6900006e65000093
:108a180020370000363a0000204100005353000080
:108a28004552000054280000665f00007469000089
:108a3800636b0000732000003c2000003635000006
:108a480035330000352e000035290000206600006f
:108a5800616900006c650000642e00000a000000d7
:108a680045720000726f000072200000696e0000fd
:108a7800202e00002e2f00002e2e00002f6c00004c
:108a8800696200002f6c0000696200002f7300000b
:108a9800726300002f700000696300003234000028
:108aa8005f740000696d0000657200002e630000ad
:108ab800206c0000696e000065200000313600005f
:108ac800303a000020410000535300004552000096
:108ad80054280000753800005f540000434b000024
:108ae80050530000203c00003d20000033290000c6
:108af80020660000616900006c650000642e0000bb
:108b08000a0000000a0a0000596f00007572000090
:108b1800206300006c6f0000636b0000206300009e
:108b2800686f00006963000065200000666100004e
:108b3800696c000065640000207400006f2000006c
:108b4800696e000069740000696100006c690000ca
:108b58007a6500002e2000005365000065200000a3
:108b68002e2e00002f2e00002e2f00006c69000012
:108b7800622f00006c690000622f00007372000011
:108b8800632f00007069000063320000345f00004a
:108b9800636c00006f6300006b6600007265000084
:108ba800712e0000632000006c6900006e650000f3
:108bb8002032000030330000206600006f72000091
:108bc800206d00006f7200006520000064650000e1
:108bd80074610000696c0000732e0000002e000014
:108be8002e2e0000202d00002d2d0000202e00002c
:108bf8002e2e000000450000727200006f72000007
:108c0800206900006e2000002e2e00002f2e00008c
:108c18002e2f00006c690000622f00006c690000b4
:108c2800622f000073720000632f0000706900005b
:108c380063320000345f0000636c00006f63000063
:108c48006b66000072650000712e00006320000052
:108c58006c6900006e6500002032000032300000b0
:108c68003a200000415300005345000052540000d0
:108c780028750000385f0000736f000075720000ef
:108c880063650000203c0000203800002920000017
:108c980066610000696c0000656400002e0a00002f
:108ca8000000000045720000726f00007220000092
:108cb800696e0000202e00002e2f00002e2e0000ce
:108cc8002f6c0000696200002f6c000069620000d0
:108cd8002f730000726300002f70000069630000aa
:108ce800323400005f6600006c61000073680000a9
:108cf8002e630000206c0000696e000065200000f3
:108d080032300000323a0000204100005353000086
:108d1800455200005428000075310000365f0000fd
:108d28006c6500006e2000003c3d000020460000fd
:108d38004c410000534800005f50000041470000cc
:108d48004542000059540000455300002920000006
:108d580066610000696c0000656400002e0a00006e
:108d680000450000727200006f7200002069000068
:108d78006e2000002e2e00002f2e00002e2f000047
:108d88006c690000622f00006c690000622f00000f
:108d980073720000632f00007069000063320000e6
:108da800345f0000666c000061730000682e0000ec
:108db800632000006c6900006e650000203200002e
:108dc800353100003a2000004153000053450000af
:108dd8005254000028750000313600005f6c000016
:108de800656e0000203c00003d200000464c00005d
:108df80041530000485f0000504100004745000013
:108e08004259000054450000532900002066000024
:108e1800616900006c650000642e00000a00000013
:108e28004932000043310000205300007461000003
:108e38007274000000490000324300003120000035
:108e48005253000074610000727400000049000071
:108e58003243000031200000537400006f7000009e
:108e68000049000032430000312000005075000026
:108e780074000000493200004350000055540000bf
:108e8800312c0000204e0000414b000020720000f1
:108e980065740000757200006e650000642e0000a5
:108ea80000490000324300003120000047650000ff
:108eb80074000000493200004332000020530000d3
:108ec8007461000072740000004900003243000021
:108ed80032200000525300007461000072740000d8
:108ee80000490000324300003220000053740000a3
:108ef8006f7000000049000032430000322000007b
:108f08005075000074000000493200004350000012
:108f180055540000322c0000204e0000414b000048
:108f28002072000065740000757200006e65000014
:108f3800642e000000490000324300003220000087
:108f480047650000740000000a65000063680000bf
:108f58006f5f000075610000727400005f6d0000b3
:108f680061630000726f00002e6300002c20000077
:108f780062750000696c0000742000006f6e0000cc
:108f88002044000065630000202000003620000017
:108f980032300000323300002061000074200000ed
:108fa800313600003a340000393a0000323000000f
:108fb8000a00000053500000493100002052000010
:108fc800656300006569000076650000204f0000b9
:108fd80076650000726600006c6f0000770a00007a
:108fe8000053000050490000322000005265000084
:108ff8006365000069760000652000004f76000078
:1090080065720000666c00006f7700000a000000bf
:1090180073740000646900006e000000737400003f
:10902800646f000075740000007300007464000031
:109038006572000072000000636f00006e76000029
:1090480065720000744100004443000031280000ac
:0490580029000000eb
:020000040000fa
:10905c000600fa00000f78001107980042479800ac
:10906c001e007800900078000100a1000108780033
:10907c001e007800900078000110a1000108780013
:10908c009e009000f07f2000008160001e007800a0
:10909c00f17f200081006100c208dd0090017800a2
:1090ac0032002e000281610082807000010878007d
:1090bc001e0078001001900001002f00810061005b
:1090cc00110098001e00780020019000f13f200054
:1090dc0081006100210098001e007800a000900023
:1090ec000190a100210098001e007800a0009000c3
:1090fc000180a100210098001e007800a0009000c3
:10910c000140a100210098004e409000ef4060000b
:10911c001e0078008180fb00ef806000a0019000b1
:10912c0002ff2f00028161008280700021009800f4
:10913c000080fa00000006000800fa00000f78001a
:10914c001207980023079800614798001e007800ca
:10915c00900078000100a000010878001e00780043
:10916c00900078000110a100010878001e0090000a
:10917c00ae0090004208de0080007800f07f2000f6
:10918c0080806000f07f200000806000f17f200074
:10919c00010060009e007800f27f20000200600059
:1091ac004200dd009101780032002e000281610046
:1091bc0002007000800878001e009000ae00900045
:1091cc004a09dd004600de0000007100c608de0022
:1091dc0080007800f0ff200080806000f0ff20000d
:1091ec0000806000f1ff2000010060009e0078000c
:1091fc00f2ff2000020060009101900002002f009d
:10920c000281610002007000900098001e00900026
:10921c0000407800f043b200f043b200f043b200db
:10922c009e0078000080fb004a00dd00a101900048
:10923c00f23f20000281610002007000a000980043
:10924c001e007800a00090000190a1002100980061
:10925c001e007800a00090000180a1002100980061
:10926c001e007800a00090000140a1002100980091
:10927c006e409000ef4060001e0078008180fb0083
:10928c00ef806000a001900002ff2f0002816100be
:10929c0082807000210098000080fa000000060017
:1092ac000a00fa00400798004e0090001000780069
:1092bc004200de00f17f2000010060008000eb0026
:1092cc00008fbe001e0078009e009000c200dd00e2
:1092dc000000200020079800310798004e009000f5
:1092ec0090009000f0ff2000008060008000eb00f8
:1092fc00008fbe001e0078009e0090004609dd0025
:10930c00ca01de00830171004601dd002e009000d1
:10931c00be00900000017100818171004e00900030
:10932c00200090004a00de00004078000080fb0026
:10933c008000eb0000007100818071002007980014
:10934c00310798002e009000be0090000080fa00bb
:10935c00000006000000fa000164a9000080fa0079
:10936c00000006000200fa00004f78009e407800d2
:10937c007fcf60001e407800ef4f50000b0036008e
:10938c009e40780070cf50001e80fb001100200022
:10939c000008dd000080ea008000780010218000c9
:1093ac000080600010218800080037001e80fb0040
:1093bc00110020000008dd000080ea008000780029
:1093cc000021800000806000002188000080fa00ed
:1093dc00000006000200fa00004f78009e40780062
:1093ec007fcf60001e407800ef4f50000a0036001f
:1093fc009e40780070cf50001e80fb0011002000b2
:10940c000008dd00804078001021800000407800ca
:10941c0000c06000070037001e80fb001100200018
:10942c000008dd00804078000021800000407800ba
:10943c0000c060000080fa00000006000000fa0086
:10944c002024ef002224ef002824ef002a24ef0030
:10945c000080fa00000006000400fa00004f7800bb
:10946c0011479800224798009e40780067cf600013
:10947c001e80fb00e30f500049003200e30f500048
:10948c0007003c00e10f50001f003200e10f5000bc
:10949c0030003c000000e000080032008c00370077
:1094ac00e50f500064003200e50f50004f0035000e
:1094bc00e60f500073003200850037001e4090000c
:1094cc00614060000080fb00610060004700dd002f
:1094dc00812180000170a1000100700080218800b2
:1094ec002e409000634060000080fb006300600031
:1094fc0082218000c1ff2f008100610001007000fb
:10950c0080218800850037001e409000614060007b
:10951c000080fb004f00dd008121800001f0a100e4
:10952c0001007000802188002e4090006340600094
:10953c000080fb00630060004800dd008221800099
:10954c00f1cf2f00810061000100700080218800a4
:10955c00720037001e409000614060000080fb00ec
:10956c00610060004700dd00912180000170a100c6
:10957c0001007000902188002e4090006340600034
:10958c000080fb006300600092218000c1ff2f006f
:10959c008100610001007000902188005f0037009d
:1095ac001e409000614060000080fb004f00dd0019
:1095bc009121800001f0a100010070009021880031
:1095cc002e409000634060000080fb006300600050
:1095dc004800dd0092218000f1cf2f008100610056
:1095ec0001007000902188004c0037001e40900054
:1095fc00614060000080fb00610060004700dd00fe
:10960c00a12180000170a10001007000a021880040
:10961c002e409000634060000080fb0063006000ff
:10962c00a2218000c1ff2f008100610001007000a9
:10963c00a0218800390037001e4090006140600076
:10964c000080fb004f00dd00a121800001f0a10093
:10965c0001007000a02188002e4090006340600043
:10966c000080fb00630060004800dd00a221800048
:10967c00f1cf2f008100610001007000a021880053
:10968c00260037001e409000614060000080fb0007
:10969c00610060004700dd00b12180000170a10075
:1096ac0001007000b02188002e40900063406000e3
:1096bc000080fb0063006000b2218000c1ff2f001e
:1096cc008100610001007000b02188001300370098
:1096dc001e409000614060000080fb004f00dd00e8
:1096ec00b121800001f0a10001007000b0218800c0
:1096fc002e409000634060000080fb00630060001f
:10970c004800dd00b2218000f1cf2f008100610004
:10971c0001007000b0218800000000000080fa00f9
:10972c00000006000200fa00004f78009e4078000e
:10973c0067cf60001e80fb00e30f50001600320064
:10974c00e30f500007003c00e10f50000e00320008
:10975c00e10f50000e003c000000e0000800320059
:10976c0015003700e50f50000f003200e50f5000d8
:10977c000b003500e60f50000d0032000e003700d4
:10978c003064a8000e0037003164a8000c003700cc
:10979c003264a8000a0037003364a80008003700c0
:1097ac003464a800060037003564a80004003700b4
:1097bc003664a800020037003764a80000000000df
:1097cc000080fa00000006000200fa00004f78004a
:1097dc009e40780067cf60001e80fb00e30f5000b6
:1097ec001c003200e30f500007003c00e10f50005a
:1097fc0010003200e10f500012003c000000e000ad
:10980c000800320023003700e50f50001900320029
:10981c00e50f500013003500e60f50001900320020
:10982c001c003700802180004300de006140600096
:10983c001b003700802180004b00de00614060007f
:10984c0017003700902180004300de00614060006b
:10985c0013003700902180004b00de006140600057
:10986c000f003700a02180004300de006140600043
:10987c000b003700a02180004b00de00614060002f
:10988c0007003700b02180004300de00614060001b
:10989c0003003700b02180004b00de006140600007
:1098ac000080fa00000006001c00fa002057980007
:1098bc00220f9800330f9800015f9800145f9800f6
:1098cc00255f98002e5090006f4060002057980044
:1098dc001e5890006f406000105f98002e5890004a
:1098ec0067406000205f98002e5090000080fb00c5
:1098fc000000400000004000800078000044200080
:10990c00008f40001e80e800100798002e50900039
:10991c000080fb004300de00004078000080fb006c
:10992c000000400080007800804120000080400052
:10993c00200798002e5090000080fb004200de00b3
:10994c00004078000080fb000000400080007800a0
:10995c000042200000804000300798000004a8005e
:10996c000e5890000004e0001b0032002e089000fe
:10997c00be0890004208de0080007800f07f2000d6
:10998c0000806000400798002e089000be089000f0
:10999c004008de000000780063006000500798006b
:1099ac00ae089000610798004e009000c500dd00e5
:1099bc005e00900001007000800078000130a00073
:1099cc001e007800010878001e009000ee00900048
:1099dc00010878000b003700ae089000f07f2000e3
:1099ec0000806000400798004e009000c500dd002c
:1099fc001e007800010878001e0090008000eb002b
:109a0c00010878002e509000634060004200dd0099
:109a1c00604f98006e4890000080fb00f100200021
:109a2c000008dd000080ea00000f98003e00900066
:109a3c00900078000e089000808060001e58900006
:109a4c000081fb006e4890000080fb000010dd00e0
:109a5c00810070003e009000010878002e509000ac
:109a6c006740600000404000604f98006e489000d6
:109a7c000080fb00310020000008dd000080ea00bf
:109a8c00000f98002e009000900078000e089000b7
:109a9c00808060002e5890000081fb006e48900082
:109aac000080fb000010dd00810070002e00900093
:109abc00010878002e5090000080fb00110020005f
:109acc000008dd0080007800a020800001007000fc
:109adc00a02088000004a9000080fa000000060005
:109aec001200fa00204f9800620798007307980044
:109afc0001579800145798002e4890000080fb00e6
:109b0c00000040000000400080007800004320006e
:109b1c00008f40001e80e800100798000004a80089
:109b2c000e5090000004e000250032006e00900002
:109b3c00fe0090004208de0080007800f07f2000dc
:109b4c0000806000200798006e009000fe009000de
:109b5c004008de00000078006300600030079800c9
:109b6c00ee009000410798001e5090000004e000a9
:109b7c00090032002e009000c500dd003e00900070
:109b8c0001007000800078000130a0001e007800f9
:109b9c0001087800060037002e009000c500dd009b
:109bac003e009000810070001e00780001087800d3
:109bbc001e009000ce0090000108780015003700c0
:109bcc00ee009000f07f20000080600020079800dd
:109bdc001e5090000004e000070032002e009000a0
:109bec004500dd00800078000130a0001e007800e8
:109bfc0001087800040037002e009000c500dd003d
:109c0c001e007800010878001e0090008000eb0018
:109c1c00010878000004a9000080fa00000006008a
:109c2c000400fa00100798001e0090008000eb0062
:109c3c000001be00f0172100110020003ff00700ca
:109c4c00000f78001e0fe900f01f20009e00780026
:109c5c00808f500002003600f01f2000000f7800ab
:109c6c009e0078002110880007e2a8000080fa000e
:109c7c00000006000200fa0040712c00d080880021
:109c8c00003a80004500de0061406000004f780023
:109c9c0040a7a8000602a8000000000030108000b9
:109cac00610060000000e000fcff3a009e4078007c
:109cbc0061c060000080fb00610060004500dd00b9
:109ccc00013a80000150a10001007000003a8800a8
:109cdc001a30ef000080fa00000006000200fa00c3
:109cec00f0712c00d0808800003a80004500de0026
:109cfc0061406000004f780040a7a8000622a80031
:109d0c000000000030108000620060000000e000e5
:109d1c00fcff3a009e40780061c060000080fb00b0
:109d2c00610060004500dd00013a80000150a10097
:109d3c0001007000003a88001a30ef000080fa0031
:109d4c00000006000200fa00b0722c00d0808800df
:109d5c00003a80004500de0061406000004f780052
:109d6c0040a7a8000642a8000000000030108000a8
:109d7c00640060000000e000fcff3a009e407800a8
:109d8c0061c060000080fb00610060004500dd00e8
:109d9c00013a80000150a10001007000003a8800d7
:109dac001a30ef000080fa00000006000400fa00f0
:109dbc002047980050732c00d0808800003a800017
:109dcc004500de0061406000004f780040a7a8000d
:109ddc002e4090000080fb00101088000000000056
:109dec004110800000002400008060000000e000b2
:109dfc00fbff3a009e40780061c060000080fb00d1
:109e0c00610060004500dd00013a80000150a100b6
:109e1c0001007000003a88001a30ef0041108000f9
:109e2c0000002800008060000000e000020032000a
:109e3c00e0732c00770407000080fa000000060095
:109e4c000400fa002047980050732c00d080880042
:109e5c00003a80004500de0061406000004f780051
:109e6c0040a7a8002e4090000080fb001010880036
:109e7c000000000041108000000024000080600001
:109e8c000000e000fbff3a009e40780061c06000db
:109e9c000080fb00610060004500dd00013a80009d
:109eac000150a10001007000003a88001a30ef0048
:109ebc00401080004f00de00004078000080fa0067
:109ecc00000006000400fa002047980050752c0092
:109edc00d0808800003a80004500de0061406000c0
:109eec00004f780040a7a800000000003010800050
:109efc007f0060000000e000fcff3a000662a80052
:109f0c000000000040108000620060000000e000d3
:109f1c00fcff32000060fe0000108000104798002b
:109f2c0000000000301080007f0060000000e000a6
:109f3c00fcff3a002e409000614060000080fb0066
:109f4c00610060004500dd00311080000150a1006f
:109f5c0001007000301088000682a800000000008c
:109f6c0030108000700060000000e000fcff3a0040
:109f7c009e40780061c060000080fb0061006000c2
:109f8c004500dd00013a80000150a1000100700085
:109f9c00003a88001a30ef001e4090000080fa0052
:109fac00000006000200fa00004f780011479800ec
:109fbc0030ff07001e4078000004a1007bff070063
:109fcc001e40900079ff07005eff07000080fa003a
:109fdc00000006000400fa00004f780011479800ba
:109fec002247980023ff07001e4078000004a100c0
:109ffc006eff07001e4090006cff07002e40900083
:10a00c006aff07004fff07000080fa0000000600ff
:10a01c000800fa00204798002107980032079800a2
:10a02c0014ff07002e4090000004a1005fff070002
:10a03c000000eb00000f7800070037002e009000a6
:10a04c001040780059ff07002e0090000000e80037
:10a05c00200798001e0fe8003e0090009e0078003c
:10a06c00808f5000f5ff390036ff07000080fa00a2
:10a07c00000006000400fa00004f78001107980059
:10a08c00fcfe07001e4078000004a00047ff0700fc
:10a09c0010c0b3008bff07009e0090008048780032
:10a0ac0028ff07000080fa00000006000600fa00f6
:10a0bc00004f78001107980022079800edfe07006a
:10a0cc001e4078000004a00038ff07000040eb00a1
:10a0dc007cff07009e0090008048780010c0b30001
:10a0ec0078ff0700ae0090008048780015ff07004d
:10a0fc000080fa00000006000800fa0020479800d3
:10a10c002107980032079800dafe07002e409000d5
:10a11c000004a00025ff07000000eb00000f7800f2
:10a12c00110037003e0090000000e9009e0f500027
:10a13c00050032000040eb0062ff0700ae0090000b
:10a14c00804878000400370010c0b3005dff0700a2
:10a15c00ae009000804878002e0090000000e800cf
:10a16c00200798001e0fe8003e0090009e0078002b
:10a17c00808f5000ebff3900f2fe07000080fa00e0
:10a18c00000006000400fa00100798001e00900062
:10a19c008000eb000001be00f01721001100200030
:10a1ac00e6ee0700000f78001e0fe900f01f2000fc
:10a1bc009e007800808f500002003600f01f2000b7
:10a1cc00000f78009e007800a110880017e2a8000c
:10a1dc000080fa00000006000200fa00e0752c0076
:10a1ec00d0808800003a80004500de0061406000ad
:10a1fc00004f780040a7a8001602a800000000003d
:10a20c00b0108000610060000000e000fcff3a002c
:10a21c009e40780061c060000080fb00610060001f
:10a22c004500dd00013a80000150a10001007000e2
:10a23c00003a88001a30ef000080fa000000060097
:10a24c000200fa0090762c00d0808800003a800042
:10a25c004500de0061406000004f780040a7a80078
:10a26c001622a80000000000b01080006200600000
:10a27c000000e000fcff3a009e40780061c06000e6
:10a28c000080fb00610060004500dd00013a8000a9
:10a29c000150a10001007000003a88001a30ef0054
:10a2ac000080fa00000006000200fa0050772c0033
:10a2bc00d0808800003a80004500de0061406000dc
:10a2cc00004f780040a7a8001642a800000000002c
:10a2dc00b0108000640060000000e000fcff3a0059
:10a2ec009e40780061c060000080fb00610060004f
:10a2fc004500dd00013a80000150a1000100700012
:10a30c00003a88001a30ef000080fa0000000600c6
:10a31c000400fa0020479800f0772c00d0808800c9
:10a32c00003a80004500de0061406000004f78007c
:10a33c0040a7a8002e4090000080fb0090108800e1
:10a34c0000000000c11080000000240000806000ac
:10a35c000000e000fbff3a009e40780061c0600006
:10a36c000080fb00610060004500dd00013a8000c8
:10a37c000150a10001007000003a88001a30ef0073
:10a38c00c110800000002800008060000000e00088
:10a39c000200320080782c001e0307000080fa00b7
:10a3ac00000006000400fa0020479800f0772c000b
:10a3bc00d0808800003a80004500de0061406000db
:10a3cc00004f780040a7a8002e4090000080fb00b2
:10a3dc009010880000000000c110800000002400d4
:10a3ec00008060000000e000fbff3a009e40780017
:10a3fc0061c060000080fb00610060004500dd0072
:10a40c00013a80000150a10001007000003a880060
:10a41c001a30ef00c01080004f00de0000407800c2
:10a42c000080fa00000006000400fa0020479800a3
:10a43c00f0792c00d0808800003a80004500de00c6
:10a44c0061406000004f780040a7a80000000000a9
:10a45c00b01080007f0060000000e000fcff3a00bc
:10a46c001662a80000000000c010800062006000ae
:10a47c000000e000fcff32000060fe008010800055
:10a48c001047980000000000b01080007f006000b2
:10a49c000000e000fcff3a002e409000614060009c
:10a4ac000080fb00610060004500dd00b110800001
:10a4bc000150a10001007000b01088001682a800a5
:10a4cc0000000000b0108000700060000000e00090
:10a4dc00fcff3a009e40780061c060000080fb00e9
:10a4ec00610060004500dd00013a80000150a100d0
:10a4fc0001007000003a88001a30ef001e409000f6
:10a50c000080fa00000006000200fa00004f7800fc
:10a51c001147980030ff07001e4078000004a1008e
:10a52c007bff07001e40900079ff07005eff0700cd
:10a53c000080fa00000006000400fa00004f7800ca
:10a54c00114798002247980023ff07001e4078000f
:10a55c000004a1006eff07001e4090006cff070076
:10a56c002e4090006aff07004fff07000080fa00a2
:10a57c00000006000800fa00204798002107980008
:10a58c003207980014ff07002e4090000004a10031
:10a59c005fff07000000eb00000f7800070037009a
:10a5ac002e0090001040780059ff07002e009000fc
:10a5bc000000e800200798001e0fe8003e00900005
:10a5cc009e007800808f5000f5ff390036ff0700a1
:10a5dc000080fa00000006000400fa00004f78002a
:10a5ec0011079800fcfe07001e4078000004a00034
:10a5fc0047ff070010c0b3008bff07009e009000c0
:10a60c008048780028ff07000080fa000000060050
:10a61c000600fa00004f78001107980022079800f6
:10a62c00edfe07001e4078000004a00038ff070074
:10a63c000040eb007cff07009e00900080487800f3
:10a64c0010c0b30078ff0700ae009000804878007f
:10a65c0015ff07000080fa00000006000800fa0051
:10a66c00204798002107980032079800dafe07006f
:10a67c002e4090000004a00025ff07000000eb0016
:10a68c00000f7800110037003e0090000000e90038
:10a69c009e0f5000050032000040eb0062ff0700e7
:10a6ac00ae009000804878000400370010c0b30062
:10a6bc005dff0700ae009000804878002e009000ef
:10a6cc000000e800200798001e0fe8003e009000f4
:10a6dc009e007800808f5000ebff3900f2fe0700df
:10a6ec000080fa00000006000400fa00004f780019
:10a6fc00110798001e4078000004e00002003a00a8
:10a70c001e009000430207000080fa0000000600c3
:10a71c000000fa000030ef000230ef000080fa0079
:10a72c00000006000400fa00004f780011079800a2
:10a73c0000808000e10f500012003200e10f500049
:10a74c0003003900e20f5000260032003c003700b5
:10a75c00a0cab3009e40780080cf500005003200a4
:10a76c001e0090001e487800100020001080880009
:10a77c003700370010002000008088000230ef0006
:10a78c00330037001e00fb00a1fa2f00810f500090
:10a79c0003003200e40f4000040032000a003700ce
:10a7ac0020002000008088000d0037001e00900063
:10a7bc00a1cab30001487800100020001080880066
:10a7cc000030ef00060037001e0090001e48780095
:10a7dc0020002000108088000030ef0000000000f6
:10a7ec001b0037001e00fb00a1fa2f00810f500048
:10a7fc0009003200e40f40000a003a00200020005b
:10a80c00108088000030ef001e009000a1cab30039
:10a81c0001487800090037004000200010808800b3
:10a82c00060037001e0090001e4878003000200003
:10a83c00108088000030ef0000000000040037009a
:10a84c00c1d42b000040eb00a7ff07000000000064
:10a85c00108080000080fa00000006000000fa0062
:10a86c00208080000080fa00000006000000fa0042
:10a87c0006d0bf000080fa00000006000000fa00bd
:10a88c00408080000080fa00000006000200fa0000
:10a89c0051808000010f78000a30ef001e00780014
:10a8ac000080fa00000006000000fa000430ef00ff
:10a8bc000a30ef0096ff07000080fa000000060047
:10a8cc000000fa000a30ef000080fa0000000600d9
:10a8dc000000fa00820f20008000eb000002210033
:10a8ec0038f10700820020008000eb00801121006d
:10a8fc0034f107000080fa00000006000000fa00a6
:10a90c00208080000000e00009003a0050808000a8
:10a91c000000e00006003a0041808000f00f2000ab
:10a92c00808f500002003a00100020000100370018
